{
  "_format": "hh-sol-artifact-1",
  "contractName": "CastleCampaignItems",
  "sourceName": "contracts/CastleCampaignItems.sol",
  "abi": [
    {
      "inputs": [],
      "stateMutability": "nonpayable",
      "type": "constructor"
    },
    {
      "inputs": [],
      "name": "iceLance",
      "outputs": [
        {
          "internalType": "enum FantasyThings.ItemType",
          "name": "item",
          "type": "uint8"
        },
        {
          "internalType": "enum FantasyThings.AbilityType",
          "name": "attr",
          "type": "uint8"
        },
        {
          "internalType": "uint8",
          "name": "power",
          "type": "uint8"
        },
        {
          "internalType": "uint8",
          "name": "numUses",
          "type": "uint8"
        },
        {
          "internalType": "string",
          "name": "name",
          "type": "string"
        }
      ],
      "stateMutability": "view",
      "type": "function"
    },
    {
      "inputs": [],
      "name": "scrollOfProtection",
      "outputs": [
        {
          "internalType": "enum FantasyThings.ItemType",
          "name": "item",
          "type": "uint8"
        },
        {
          "internalType": "enum FantasyThings.AbilityType",
          "name": "attr",
          "type": "uint8"
        },
        {
          "internalType": "uint8",
          "name": "power",
          "type": "uint8"
        },
        {
          "internalType": "uint8",
          "name": "numUses",
          "type": "uint8"
        },
        {
          "internalType": "string",
          "name": "name",
          "type": "string"
        }
      ],
      "stateMutability": "view",
      "type": "function"
    },
    {
      "inputs": [],
      "name": "scrollOfSpellpower",
      "outputs": [
        {
          "internalType": "enum FantasyThings.ItemType",
          "name": "item",
          "type": "uint8"
        },
        {
          "internalType": "enum FantasyThings.AbilityType",
          "name": "attr",
          "type": "uint8"
        },
        {
          "internalType": "uint8",
          "name": "power",
          "type": "uint8"
        },
        {
          "internalType": "uint8",
          "name": "numUses",
          "type": "uint8"
        },
        {
          "internalType": "string",
          "name": "name",
          "type": "string"
        }
      ],
      "stateMutability": "view",
      "type": "function"
    },
    {
      "inputs": [],
      "name": "scrollOfStrength",
      "outputs": [
        {
          "internalType": "enum FantasyThings.ItemType",
          "name": "item",
          "type": "uint8"
        },
        {
          "internalType": "enum FantasyThings.AbilityType",
          "name": "attr",
          "type": "uint8"
        },
        {
          "internalType": "uint8",
          "name": "power",
          "type": "uint8"
        },
        {
          "internalType": "uint8",
          "name": "numUses",
          "type": "uint8"
        },
        {
          "internalType": "string",
          "name": "name",
          "type": "string"
        }
      ],
      "stateMutability": "view",
      "type": "function"
    }
  ],
  "bytecode": "0x608060405234801561001057600080fd5b50600080546301000000600160ff19909216821762ffff001916622800001763ff0000001916179091556040805180820190915260188082527f447261676f6e736c61796572277320496365204c616e63650000000000000000602090920191825261007d9291906101b9565b5060028054630100000061ffff199091166101001762ff00001916621400001763ff00000019161790556040805180820190915260148082527f5363726f6c6c206f662050726f74656374696f6e00000000000000000000000060209092019182526100eb916003916101b9565b5060048054630100000062ffffff19909116621400001763ff0000001916179055604080518082019091526012808252710a6c6e4ded8d840decc40a6e8e4cadccee8d60731b6020909201918252610145916005916101b9565b5060068054630100000061ffff199091166104001762ff00001916621400001763ff00000019161790556040805180820190915260148082527f5363726f6c6c206f66205370656c6c706f77657200000000000000000000000060209092019182526101b3916007916101b9565b5061028d565b8280546101c590610252565b90600052602060002090601f0160209004810192826101e7576000855561022d565b82601f1061020057805160ff191683800117855561022d565b8280016001018555821561022d579182015b8281111561022d578251825591602001919060010190610212565b5061023992915061023d565b5090565b5b80821115610239576000815560010161023e565b60028104600182168061026657607f821691505b6020821081141561028757634e487b7160e01b600052602260045260246000fd5b50919050565b6103078061029c6000396000f3fe608060405234801561001057600080fd5b506004361061004c5760003560e01c80633f03d3e1146100515780638f8b415b14610073578063ccff9ee31461007b578063cf224be314610083575b600080fd5b61005961008b565b60405161006a9594939291906101ea565b60405180910390f35b610059610145565b61005961017c565b6100596101b3565b600480546005805460ff8084169461010085048216946201000081048316946301000000909104909216929091906100c290610280565b80601f01602080910402602001604051908101604052809291908181526020018280546100ee90610280565b801561013b5780601f106101105761010080835404028352916020019161013b565b820191906000526020600020905b81548152906001019060200180831161011e57829003601f168201915b5050505050905085565b600080546001805460ff8084169461010085048216946201000081048316946301000000909104909216929091906100c290610280565b600280546003805460ff8084169461010085048216946201000081048316946301000000909104909216929091906100c290610280565b600680546007805460ff8084169461010085048216946201000081048316946301000000909104909216929091906100c290610280565b6000600387106101fc576101fc6102bb565b868252602060078710610211576102116102bb565b868184015260ff8616604084015260ff8516606084015260a0608084015283518060a0850152825b818110156102555785810183015185820160c001528201610239565b81811115610266578360c083870101525b50601f01601f19169290920160c001979650505050505050565b60028104600182168061029457607f821691505b602082108114156102b557634e487b7160e01b600052602260045260246000fd5b50919050565b634e487b7160e01b600052602160045260246000fdfea26469706673582212202a6a02917f7bab7fe5cf3ad41ecd19625e578b0689ac2fe3c9c5a7144d47fcf864736f6c63430008000033",
  "linkReferences": {},
  "deployedLinkReferences": {}
}