{
  "_format": "hh-sol-artifact-1",
  "contractName": "MockVRF",
  "sourceName": "contracts/mockVRF.sol",
  "abi": [
    {
      "inputs": [],
      "stateMutability": "nonpayable",
      "type": "constructor"
    },
    {
      "inputs": [
        {
          "internalType": "uint256",
          "name": "_num",
          "type": "uint256"
        },
        {
          "internalType": "string",
          "name": "_letters",
          "type": "string"
        },
        {
          "internalType": "bytes32",
          "name": "_requestId",
          "type": "bytes32"
        }
      ],
      "name": "requestRandomness",
      "outputs": [],
      "stateMutability": "nonpayable",
      "type": "function"
    },
    {
      "inputs": [
        {
          "internalType": "address",
          "name": "_campaignAddress",
          "type": "address"
        }
      ],
      "name": "setCampaignAddress",
      "outputs": [],
      "stateMutability": "nonpayable",
      "type": "function"
    }
  ],
  "bytecode": "0x608060405234801561001057600080fd5b5061029a806100206000396000f3fe608060405234801561001057600080fd5b50600436106100365760003560e01c8063430f3b5d1461003b578063a3306ae314610050575b600080fd5b61004e6100493660046101a6565b610063565b005b61004e61005e36600461016b565b610124565b60003385858560405160200161007c9493929190610223565b60408051601f198184030181529082905280516020909101206000547fee3f63c400000000000000000000000000000000000000000000000000000000835290925073ffffffffffffffffffffffffffffffffffffffff169063ee3f63c4906100eb9085908590600401610256565b600060405180830381600087803b15801561010557600080fd5b505af1158015610119573d6000803e3d6000fd5b505050505050505050565b600080547fffffffffffffffffffffffff00000000000000000000000000000000000000001673ffffffffffffffffffffffffffffffffffffffff92909216919091179055565b60006020828403121561017c578081fd5b813573ffffffffffffffffffffffffffffffffffffffff8116811461019f578182fd5b9392505050565b600080600080606085870312156101bb578283fd5b84359350602085013567ffffffffffffffff808211156101d9578485fd5b818701915087601f8301126101ec578485fd5b8135818111156101fa578586fd5b88602082850101111561020b578586fd5b95986020929092019750949560400135945092505050565b60006bffffffffffffffffffffffff198660601b1682528460148301528284603484013791016034019081529392505050565b91825260208201526040019056fea2646970667358221220026bd756629ee31d421c150475821b951fee7bf6197706b5e69b957d58f881c064736f6c63430008000033",
  "linkReferences": {},
  "deployedLinkReferences": {}
}