{
  "_format": "hh-sol-artifact-1",
  "contractName": "FantasyCharacter",
  "sourceName": "contracts/FantasyCharacter.sol",
  "abi": [
    {
      "inputs": [],
      "stateMutability": "nonpayable",
      "type": "constructor"
    },
    {
      "anonymous": false,
      "inputs": [
        {
          "indexed": true,
          "internalType": "address",
          "name": "owner",
          "type": "address"
        },
        {
          "indexed": true,
          "internalType": "address",
          "name": "approved",
          "type": "address"
        },
        {
          "indexed": true,
          "internalType": "uint256",
          "name": "tokenId",
          "type": "uint256"
        }
      ],
      "name": "Approval",
      "type": "event"
    },
    {
      "anonymous": false,
      "inputs": [
        {
          "indexed": true,
          "internalType": "address",
          "name": "owner",
          "type": "address"
        },
        {
          "indexed": true,
          "internalType": "address",
          "name": "operator",
          "type": "address"
        },
        {
          "indexed": false,
          "internalType": "bool",
          "name": "approved",
          "type": "bool"
        }
      ],
      "name": "ApprovalForAll",
      "type": "event"
    },
    {
      "anonymous": false,
      "inputs": [
        {
          "indexed": true,
          "internalType": "address",
          "name": "previousOwner",
          "type": "address"
        },
        {
          "indexed": true,
          "internalType": "address",
          "name": "newOwner",
          "type": "address"
        }
      ],
      "name": "OwnershipTransferred",
      "type": "event"
    },
    {
      "anonymous": false,
      "inputs": [
        {
          "indexed": true,
          "internalType": "address",
          "name": "from",
          "type": "address"
        },
        {
          "indexed": true,
          "internalType": "address",
          "name": "to",
          "type": "address"
        },
        {
          "indexed": true,
          "internalType": "uint256",
          "name": "tokenId",
          "type": "uint256"
        }
      ],
      "name": "Transfer",
      "type": "event"
    },
    {
      "inputs": [
        {
          "internalType": "address",
          "name": "to",
          "type": "address"
        },
        {
          "internalType": "uint256",
          "name": "tokenId",
          "type": "uint256"
        }
      ],
      "name": "approve",
      "outputs": [],
      "stateMutability": "nonpayable",
      "type": "function"
    },
    {
      "inputs": [
        {
          "internalType": "address",
          "name": "owner",
          "type": "address"
        }
      ],
      "name": "balanceOf",
      "outputs": [
        {
          "internalType": "uint256",
          "name": "",
          "type": "uint256"
        }
      ],
      "stateMutability": "view",
      "type": "function"
    },
    {
      "inputs": [
        {
          "internalType": "enum CharacterClass",
          "name": "_charClass",
          "type": "uint8"
        }
      ],
      "name": "createCharacter",
      "outputs": [],
      "stateMutability": "nonpayable",
      "type": "function"
    },
    {
      "inputs": [],
      "name": "currentTokenId",
      "outputs": [
        {
          "internalType": "uint256",
          "name": "",
          "type": "uint256"
        }
      ],
      "stateMutability": "view",
      "type": "function"
    },
    {
      "inputs": [
        {
          "internalType": "address",
          "name": "_user",
          "type": "address"
        }
      ],
      "name": "getAllCharacters",
      "outputs": [
        {
          "internalType": "uint256[]",
          "name": "",
          "type": "uint256[]"
        }
      ],
      "stateMutability": "view",
      "type": "function"
    },
    {
      "inputs": [
        {
          "internalType": "uint256",
          "name": "tokenId",
          "type": "uint256"
        }
      ],
      "name": "getApproved",
      "outputs": [
        {
          "internalType": "address",
          "name": "",
          "type": "address"
        }
      ],
      "stateMutability": "view",
      "type": "function"
    },
    {
      "inputs": [
        {
          "internalType": "address",
          "name": "owner",
          "type": "address"
        },
        {
          "internalType": "address",
          "name": "operator",
          "type": "address"
        }
      ],
      "name": "isApprovedForAll",
      "outputs": [
        {
          "internalType": "bool",
          "name": "",
          "type": "bool"
        }
      ],
      "stateMutability": "view",
      "type": "function"
    },
    {
      "inputs": [],
      "name": "name",
      "outputs": [
        {
          "internalType": "string",
          "name": "",
          "type": "string"
        }
      ],
      "stateMutability": "view",
      "type": "function"
    },
    {
      "inputs": [],
      "name": "owner",
      "outputs": [
        {
          "internalType": "address",
          "name": "",
          "type": "address"
        }
      ],
      "stateMutability": "view",
      "type": "function"
    },
    {
      "inputs": [
        {
          "internalType": "uint256",
          "name": "tokenId",
          "type": "uint256"
        }
      ],
      "name": "ownerOf",
      "outputs": [
        {
          "internalType": "address",
          "name": "",
          "type": "address"
        }
      ],
      "stateMutability": "view",
      "type": "function"
    },
    {
      "inputs": [],
      "name": "renounceOwnership",
      "outputs": [],
      "stateMutability": "nonpayable",
      "type": "function"
    },
    {
      "inputs": [],
      "name": "s_StatsManager",
      "outputs": [
        {
          "internalType": "contract IFantasyAttributesManager",
          "name": "",
          "type": "address"
        }
      ],
      "stateMutability": "view",
      "type": "function"
    },
    {
      "inputs": [],
      "name": "s_StatsManagerAddress",
      "outputs": [
        {
          "internalType": "address",
          "name": "",
          "type": "address"
        }
      ],
      "stateMutability": "view",
      "type": "function"
    },
    {
      "inputs": [
        {
          "internalType": "address",
          "name": "from",
          "type": "address"
        },
        {
          "internalType": "address",
          "name": "to",
          "type": "address"
        },
        {
          "internalType": "uint256",
          "name": "tokenId",
          "type": "uint256"
        }
      ],
      "name": "safeTransferFrom",
      "outputs": [],
      "stateMutability": "nonpayable",
      "type": "function"
    },
    {
      "inputs": [
        {
          "internalType": "address",
          "name": "from",
          "type": "address"
        },
        {
          "internalType": "address",
          "name": "to",
          "type": "address"
        },
        {
          "internalType": "uint256",
          "name": "tokenId",
          "type": "uint256"
        },
        {
          "internalType": "bytes",
          "name": "_data",
          "type": "bytes"
        }
      ],
      "name": "safeTransferFrom",
      "outputs": [],
      "stateMutability": "nonpayable",
      "type": "function"
    },
    {
      "inputs": [
        {
          "internalType": "address",
          "name": "operator",
          "type": "address"
        },
        {
          "internalType": "bool",
          "name": "approved",
          "type": "bool"
        }
      ],
      "name": "setApprovalForAll",
      "outputs": [],
      "stateMutability": "nonpayable",
      "type": "function"
    },
    {
      "inputs": [
        {
          "internalType": "address",
          "name": "_statsManagerAddress",
          "type": "address"
        }
      ],
      "name": "setStatsManager",
      "outputs": [],
      "stateMutability": "nonpayable",
      "type": "function"
    },
    {
      "inputs": [
        {
          "internalType": "bytes4",
          "name": "interfaceId",
          "type": "bytes4"
        }
      ],
      "name": "supportsInterface",
      "outputs": [
        {
          "internalType": "bool",
          "name": "",
          "type": "bool"
        }
      ],
      "stateMutability": "view",
      "type": "function"
    },
    {
      "inputs": [],
      "name": "symbol",
      "outputs": [
        {
          "internalType": "string",
          "name": "",
          "type": "string"
        }
      ],
      "stateMutability": "view",
      "type": "function"
    },
    {
      "inputs": [
        {
          "internalType": "uint256",
          "name": "tokenId",
          "type": "uint256"
        }
      ],
      "name": "tokenURI",
      "outputs": [
        {
          "internalType": "string",
          "name": "",
          "type": "string"
        }
      ],
      "stateMutability": "view",
      "type": "function"
    },
    {
      "inputs": [
        {
          "internalType": "address",
          "name": "from",
          "type": "address"
        },
        {
          "internalType": "address",
          "name": "to",
          "type": "address"
        },
        {
          "internalType": "uint256",
          "name": "tokenId",
          "type": "uint256"
        }
      ],
      "name": "transferFrom",
      "outputs": [],
      "stateMutability": "nonpayable",
      "type": "function"
    },
    {
      "inputs": [
        {
          "internalType": "address",
          "name": "newOwner",
          "type": "address"
        }
      ],
      "name": "transferOwnership",
      "outputs": [],
      "stateMutability": "nonpayable",
      "type": "function"
    }
  ],
  "bytecode": "0x60806040523480156200001157600080fd5b50604080518082018252601a81527f46616e746173792043616d706169676e2043686172616374657200000000000060208083019182528351808501909452600384526246434360e81b908401528151919291620000729160009162000101565b5080516200008890600190602084019062000101565b505050620000a56200009f620000ab60201b60201c565b620000af565b620001e4565b3390565b600780546001600160a01b038381166001600160a01b0319831681179093556040519116919082907f8be0079c531659141344cd1fd0a4f28419497f9722a3daafe3b4186f6b6457e090600090a35050565b8280546200010f90620001a7565b90600052602060002090601f0160209004810192826200013357600085556200017e565b82601f106200014e57805160ff19168380011785556200017e565b828001600101855582156200017e579182015b828111156200017e57825182559160200191906001019062000161565b506200018c92915062000190565b5090565b5b808211156200018c576000815560010162000191565b600281046001821680620001bc57607f821691505b60208210811415620001de57634e487b7160e01b600052602260045260246000fd5b50919050565b611c7880620001f46000396000f3fe608060405234801561001057600080fd5b50600436106101815760003560e01c80638da5cb5b116100d8578063b88d4fde1161008c578063e985e9c511610066578063e985e9c5146102f9578063f2fde38b1461030c578063fca5ad391461031f57610181565b8063b88d4fde146102cb578063c87b56dd146102de578063dc1ea576146102f157610181565b806395d89b41116100bd57806395d89b411461029d578063a22cb465146102a5578063b57da3b1146102b857610181565b80638da5cb5b146102825780638e6ca75e1461028a57610181565b806323b872dd1161013a5780636352211e116101145780636352211e1461025457806370a0823114610267578063715018a61461027a57610181565b806323b872dd1461020e5780633b6f3b8c1461022157806342842e0e1461024157610181565b806306fdde031161016b57806306fdde03146101c4578063081812fc146101d9578063095ea7b3146101f957610181565b80629a9b7b1461018657806301ffc9a7146101a4575b600080fd5b61018e610327565b60405161019b9190611ad6565b60405180910390f35b6101b76101b23660046113eb565b61032d565b60405161019b9190611549565b6101cc6103a7565b60405161019b9190611554565b6101ec6101e7366004611442565b610439565b60405161019b91906114b5565b61020c6102073660046113c2565b610485565b005b61020c61021c366004611281565b61051d565b61023461022f366004611235565b610555565b60405161019b9190611505565b61020c61024f366004611281565b6105c1565b6101ec610262366004611442565b6105dc565b61018e610275366004611235565b610611565b61020c610655565b6101ec6106a0565b61020c610298366004611235565b6106af565b6101cc61071d565b61020c6102b3366004611388565b61072c565b61020c6102c6366004611423565b6107fa565b61020c6102d93660046112bc565b6108c3565b6101cc6102ec366004611442565b610902565b6101ec610a23565b6101b761030736600461124f565b610a32565b61020c61031a366004611235565b610a60565b6101ec610ad1565b600e5481565b60006001600160e01b031982167f80ac58cd00000000000000000000000000000000000000000000000000000000148061039057506001600160e01b031982167f5b5e139f00000000000000000000000000000000000000000000000000000000145b8061039f575061039f82610ae0565b90505b919050565b6060600080546103b690611b80565b80601f01602080910402602001604051908101604052809291908181526020018280546103e290611b80565b801561042f5780601f106104045761010080835404028352916020019161042f565b820191906000526020600020905b81548152906001019060200180831161041257829003601f168201915b5050505050905090565b600061044482610b12565b6104695760405162461bcd60e51b8152600401610460906118e1565b60405180910390fd5b506000908152600460205260409020546001600160a01b031690565b6000610490826105dc565b9050806001600160a01b0316836001600160a01b031614156104c45760405162461bcd60e51b815260040161046090611a1c565b806001600160a01b03166104d6610b2f565b6001600160a01b031614806104f257506104f281610307610b2f565b61050e5760405162461bcd60e51b815260040161046090611738565b6105188383610b33565b505050565b61052e610528610b2f565b82610ba1565b61054a5760405162461bcd60e51b815260040161046090611a79565b610518838383610c1e565b6001600160a01b0381166000908152600b60209081526040918290208054835181840281018401909452808452606093928301828280156105b557602002820191906000526020600020905b8154815260200190600101908083116105a1575b50505050509050919050565b610518838383604051806020016040528060008152506108c3565b6000818152600260205260408120546001600160a01b03168061039f5760405162461bcd60e51b8152600401610460906117f2565b60006001600160a01b0382166106395760405162461bcd60e51b815260040161046090611795565b506001600160a01b031660009081526003602052604090205490565b61065d610b2f565b6001600160a01b031661066e6106a0565b6001600160a01b0316146106945760405162461bcd60e51b81526004016104609061192d565b61069e6000610d4b565b565b6007546001600160a01b031690565b6106b7610b2f565b6001600160a01b03166106c86106a0565b6001600160a01b0316146106ee5760405162461bcd60e51b81526004016104609061192d565b600d80546001600160a01b03199081166001600160a01b039384161791829055600c8054929093169116179055565b6060600180546103b690611b80565b610734610b2f565b6001600160a01b0316826001600160a01b031614156107655760405162461bcd60e51b8152600401610460906116b5565b8060056000610772610b2f565b6001600160a01b03908116825260208083019390935260409182016000908120918716808252919093529120805460ff1916921515929092179091556107b6610b2f565b6001600160a01b03167f17307eab39ab6107e8899845ad3d59bd9653f200f220920489ca2b5937696c31836040516107ee9190611549565b60405180910390a35050565b61080633600e54610d9d565b600c54600e546040517f41ee9ca70000000000000000000000000000000000000000000000000000000081526001600160a01b03909216916341ee9ca791610852918590600401611adf565b600060405180830381600087803b15801561086c57600080fd5b505af1158015610880573d6000803e3d6000fd5b5050336000908152600b602090815260408220600e80548254600181018455928552928420909101919091558054935091506108bb83611bbb565b919050555050565b6108d46108ce610b2f565b83610ba1565b6108f05760405162461bcd60e51b815260040161046090611a79565b6108fc84848484610dbb565b50505050565b606061090d82610b12565b6109295760405162461bcd60e51b815260040161046090611884565b6000828152600660205260408120805461094290611b80565b80601f016020809104026020016040519081016040528092919081815260200182805461096e90611b80565b80156109bb5780601f10610990576101008083540402835291602001916109bb565b820191906000526020600020905b81548152906001019060200180831161099e57829003601f168201915b5050505050905060006109cc610dee565b90508051600014156109e0575090506103a2565b815115610a125780826040516020016109fa929190611486565b604051602081830303815290604052925050506103a2565b610a1b84610e00565b949350505050565b600d546001600160a01b031681565b6001600160a01b03918216600090815260056020908152604080832093909416825291909152205460ff1690565b610a68610b2f565b6001600160a01b0316610a796106a0565b6001600160a01b031614610a9f5760405162461bcd60e51b81526004016104609061192d565b6001600160a01b038116610ac55760405162461bcd60e51b8152600401610460906115c4565b610ace81610d4b565b50565b600c546001600160a01b031681565b6001600160e01b031981167f01ffc9a70000000000000000000000000000000000000000000000000000000014919050565b6000908152600260205260409020546001600160a01b0316151590565b3390565b600081815260046020526040902080546001600160a01b0319166001600160a01b0384169081179091558190610b68826105dc565b6001600160a01b03167f8c5be1e5ebec7d5bd14f71427d1e84f3dd0314c0f7b2291e5b200ac8c7c3b92560405160405180910390a45050565b6000610bac82610b12565b610bc85760405162461bcd60e51b8152600401610460906116ec565b6000610bd3836105dc565b9050806001600160a01b0316846001600160a01b03161480610c0e5750836001600160a01b0316610c0384610439565b6001600160a01b0316145b80610a1b5750610a1b8185610a32565b826001600160a01b0316610c31826105dc565b6001600160a01b031614610c575760405162461bcd60e51b815260040161046090611962565b6001600160a01b038216610c7d5760405162461bcd60e51b815260040161046090611658565b610c88838383610518565b610c93600082610b33565b6001600160a01b0383166000908152600360205260408120805460019290610cbc908490611b3d565b90915550506001600160a01b0382166000908152600360205260408120805460019290610cea908490611b11565b909155505060008181526002602052604080822080546001600160a01b0319166001600160a01b0386811691821790925591518493918716917fddf252ad1be2c89b69c2b068fc378daa952ba7f163c4a11628f55a4df523b3ef91a4505050565b600780546001600160a01b038381166001600160a01b0319831681179093556040519116919082907f8be0079c531659141344cd1fd0a4f28419497f9722a3daafe3b4186f6b6457e090600090a35050565b610db7828260405180602001604052806000815250610e83565b5050565b610dc6848484610c1e565b610dd284848484610eb6565b6108fc5760405162461bcd60e51b815260040161046090611567565b60408051602081019091526000815290565b6060610e0b82610b12565b610e275760405162461bcd60e51b8152600401610460906119bf565b6000610e31610dee565b90506000815111610e515760405180602001604052806000815250610e7c565b80610e5b84610fea565b604051602001610e6c929190611486565b6040516020818303038152906040525b9392505050565b610e8d8383611139565b610e9a6000848484610eb6565b6105185760405162461bcd60e51b815260040161046090611567565b6000610eca846001600160a01b0316611218565b15610fdf57836001600160a01b031663150b7a02610ee6610b2f565b8786866040518563ffffffff1660e01b8152600401610f0894939291906114c9565b602060405180830381600087803b158015610f2257600080fd5b505af1925050508015610f52575060408051601f3d908101601f19168201909252610f4f91810190611407565b60015b610fac573d808015610f80576040519150601f19603f3d011682016040523d82523d6000602084013e610f85565b606091505b508051610fa45760405162461bcd60e51b815260040161046090611567565b805181602001fd5b6001600160e01b0319167f150b7a0200000000000000000000000000000000000000000000000000000000149050610a1b565b506001949350505050565b60608161102b575060408051808201909152600181527f300000000000000000000000000000000000000000000000000000000000000060208201526103a2565b8160005b8115611055578061103f81611bbb565b915061104e9050600a83611b29565b915061102f565b60008167ffffffffffffffff81111561107e57634e487b7160e01b600052604160045260246000fd5b6040519080825280601f01601f1916602001820160405280156110a8576020820181803683370190505b5090505b8415610a1b576110bd600183611b3d565b91506110ca600a86611bd6565b6110d5906030611b11565b60f81b8183815181106110f857634e487b7160e01b600052603260045260246000fd5b60200101907effffffffffffffffffffffffffffffffffffffffffffffffffffffffffffff1916908160001a905350611132600a86611b29565b94506110ac565b6001600160a01b03821661115f5760405162461bcd60e51b81526004016104609061184f565b61116881610b12565b156111855760405162461bcd60e51b815260040161046090611621565b61119160008383610518565b6001600160a01b03821660009081526003602052604081208054600192906111ba908490611b11565b909155505060008181526002602052604080822080546001600160a01b0319166001600160a01b03861690811790915590518392907fddf252ad1be2c89b69c2b068fc378daa952ba7f163c4a11628f55a4df523b3ef908290a45050565b3b151590565b80356001600160a01b03811681146103a257600080fd5b600060208284031215611246578081fd5b610e7c8261121e565b60008060408385031215611261578081fd5b61126a8361121e565b91506112786020840161121e565b90509250929050565b600080600060608486031215611295578081fd5b61129e8461121e565b92506112ac6020850161121e565b9150604084013590509250925092565b600080600080608085870312156112d1578081fd5b6112da8561121e565b935060206112e981870161121e565b935060408601359250606086013567ffffffffffffffff8082111561130c578384fd5b818801915088601f83011261131f578384fd5b81358181111561133157611331611c16565b604051601f8201601f191681018501838111828210171561135457611354611c16565b60405281815283820185018b101561136a578586fd5b81858501868301379081019093019390935250939692955090935050565b6000806040838503121561139a578182fd5b6113a38361121e565b9150602083013580151581146113b7578182fd5b809150509250929050565b600080604083850312156113d4578182fd5b6113dd8361121e565b946020939093013593505050565b6000602082840312156113fc578081fd5b8135610e7c81611c2c565b600060208284031215611418578081fd5b8151610e7c81611c2c565b600060208284031215611434578081fd5b813560088110610e7c578182fd5b600060208284031215611453578081fd5b5035919050565b60008151808452611472816020860160208601611b54565b601f01601f19169290920160200192915050565b60008351611498818460208801611b54565b8351908301906114ac818360208801611b54565b01949350505050565b6001600160a01b0391909116815260200190565b60006001600160a01b038087168352808616602084015250836040830152608060608301526114fb608083018461145a565b9695505050505050565b6020808252825182820181905260009190848201906040850190845b8181101561153d57835183529284019291840191600101611521565b50909695505050505050565b901515815260200190565b600060208252610e7c602083018461145a565b60208082526032908201527f4552433732313a207472616e7366657220746f206e6f6e20455243373231526560408201527f63656976657220696d706c656d656e7465720000000000000000000000000000606082015260800190565b60208082526026908201527f4f776e61626c653a206e6577206f776e657220697320746865207a65726f206160408201527f6464726573730000000000000000000000000000000000000000000000000000606082015260800190565b6020808252601c908201527f4552433732313a20746f6b656e20616c7265616479206d696e74656400000000604082015260600190565b60208082526024908201527f4552433732313a207472616e7366657220746f20746865207a65726f2061646460408201527f7265737300000000000000000000000000000000000000000000000000000000606082015260800190565b60208082526019908201527f4552433732313a20617070726f766520746f2063616c6c657200000000000000604082015260600190565b6020808252602c908201527f4552433732313a206f70657261746f7220717565727920666f72206e6f6e657860408201526b34b9ba32b73a103a37b5b2b760a11b606082015260800190565b60208082526038908201527f4552433732313a20617070726f76652063616c6c6572206973206e6f74206f7760408201527f6e6572206e6f7220617070726f76656420666f7220616c6c0000000000000000606082015260800190565b6020808252602a908201527f4552433732313a2062616c616e636520717565727920666f7220746865207a6560408201527f726f206164647265737300000000000000000000000000000000000000000000606082015260800190565b60208082526029908201527f4552433732313a206f776e657220717565727920666f72206e6f6e657869737460408201527f656e7420746f6b656e0000000000000000000000000000000000000000000000606082015260800190565b6020808252818101527f4552433732313a206d696e7420746f20746865207a65726f2061646472657373604082015260600190565b60208082526031908201527f45524337323155524953746f726167653a2055524920717565727920666f722060408201527f6e6f6e6578697374656e7420746f6b656e000000000000000000000000000000606082015260800190565b6020808252602c908201527f4552433732313a20617070726f76656420717565727920666f72206e6f6e657860408201526b34b9ba32b73a103a37b5b2b760a11b606082015260800190565b6020808252818101527f4f776e61626c653a2063616c6c6572206973206e6f7420746865206f776e6572604082015260600190565b60208082526029908201527f4552433732313a207472616e73666572206f6620746f6b656e2074686174206960408201527f73206e6f74206f776e0000000000000000000000000000000000000000000000606082015260800190565b6020808252602f908201527f4552433732314d657461646174613a2055524920717565727920666f72206e6f60408201527f6e6578697374656e7420746f6b656e0000000000000000000000000000000000606082015260800190565b60208082526021908201527f4552433732313a20617070726f76616c20746f2063757272656e74206f776e6560408201527f7200000000000000000000000000000000000000000000000000000000000000606082015260800190565b60208082526031908201527f4552433732313a207472616e736665722063616c6c6572206973206e6f74206f60408201527f776e6572206e6f7220617070726f766564000000000000000000000000000000606082015260800190565b90815260200190565b8281526040810160088310611b0457634e487b7160e01b600052602160045260246000fd5b8260208301529392505050565b60008219821115611b2457611b24611bea565b500190565b600082611b3857611b38611c00565b500490565b600082821015611b4f57611b4f611bea565b500390565b60005b83811015611b6f578181015183820152602001611b57565b838111156108fc5750506000910152565b600281046001821680611b9457607f821691505b60208210811415611bb557634e487b7160e01b600052602260045260246000fd5b50919050565b6000600019821415611bcf57611bcf611bea565b5060010190565b600082611be557611be5611c00565b500690565b634e487b7160e01b600052601160045260246000fd5b634e487b7160e01b600052601260045260246000fd5b634e487b7160e01b600052604160045260246000fd5b6001600160e01b031981168114610ace57600080fdfea26469706673582212209655a0deb85830ec88f7bd8c5c27af3cae331d2b81e9c8792bf79ce4ce9d2cd564736f6c63430008000033",
  "linkReferences": {},
  "deployedLinkReferences": {}
}