{
  "_format": "hh-sol-artifact-1",
  "contractName": "FantasyAttributesManager",
  "sourceName": "contracts/FantasyAttributesManager.sol",
  "abi": [
    {
      "inputs": [
        {
          "internalType": "address",
          "name": "_fantasyCharacters",
          "type": "address"
        }
      ],
      "stateMutability": "nonpayable",
      "type": "constructor"
    },
    {
      "inputs": [
        {
          "internalType": "uint256",
          "name": "_tokenId",
          "type": "uint256"
        }
      ],
      "name": "getLevel",
      "outputs": [
        {
          "internalType": "uint256",
          "name": "",
          "type": "uint256"
        }
      ],
      "stateMutability": "pure",
      "type": "function"
    },
    {
      "inputs": [
        {
          "internalType": "uint256",
          "name": "_tokenId",
          "type": "uint256"
        }
      ],
      "name": "getPlayer",
      "outputs": [
        {
          "components": [
            {
              "internalType": "uint256",
              "name": "experience",
              "type": "uint256"
            },
            {
              "internalType": "uint16",
              "name": "health",
              "type": "uint16"
            },
            {
              "internalType": "uint8",
              "name": "strength",
              "type": "uint8"
            },
            {
              "internalType": "uint8",
              "name": "armor",
              "type": "uint8"
            },
            {
              "internalType": "uint8",
              "name": "physicalblock",
              "type": "uint8"
            },
            {
              "internalType": "uint8",
              "name": "agility",
              "type": "uint8"
            },
            {
              "internalType": "uint8",
              "name": "spellpower",
              "type": "uint8"
            },
            {
              "internalType": "uint8",
              "name": "spellresistance",
              "type": "uint8"
            },
            {
              "internalType": "uint8",
              "name": "healingpower",
              "type": "uint8"
            },
            {
              "internalType": "enum FantasyThings.CharacterClass",
              "name": "class",
              "type": "uint8"
            },
            {
              "components": [
                {
                  "internalType": "enum FantasyThings.AbilityType",
                  "name": "abilityType",
                  "type": "uint8"
                },
                {
                  "internalType": "uint8",
                  "name": "action",
                  "type": "uint8"
                },
                {
                  "internalType": "string",
                  "name": "name",
                  "type": "string"
                }
              ],
              "internalType": "struct FantasyThings.Ability[]",
              "name": "abilities",
              "type": "tuple[]"
            }
          ],
          "internalType": "struct FantasyThings.CharacterAttributes",
          "name": "",
          "type": "tuple"
        }
      ],
      "stateMutability": "view",
      "type": "function"
    },
    {
      "inputs": [
        {
          "internalType": "uint256",
          "name": "_tokenId",
          "type": "uint256"
        }
      ],
      "name": "getPlayerAbilities",
      "outputs": [
        {
          "components": [
            {
              "internalType": "enum FantasyThings.AbilityType",
              "name": "abilityType",
              "type": "uint8"
            },
            {
              "internalType": "uint8",
              "name": "action",
              "type": "uint8"
            },
            {
              "internalType": "string",
              "name": "name",
              "type": "string"
            }
          ],
          "internalType": "struct FantasyThings.Ability[]",
          "name": "",
          "type": "tuple[]"
        }
      ],
      "stateMutability": "view",
      "type": "function"
    },
    {
      "inputs": [
        {
          "internalType": "uint256",
          "name": "_tokenId",
          "type": "uint256"
        },
        {
          "internalType": "uint256",
          "name": "_abilityIndex",
          "type": "uint256"
        }
      ],
      "name": "getPlayerAbility",
      "outputs": [
        {
          "components": [
            {
              "internalType": "enum FantasyThings.AbilityType",
              "name": "abilityType",
              "type": "uint8"
            },
            {
              "internalType": "uint8",
              "name": "action",
              "type": "uint8"
            },
            {
              "internalType": "string",
              "name": "name",
              "type": "string"
            }
          ],
          "internalType": "struct FantasyThings.Ability",
          "name": "",
          "type": "tuple"
        }
      ],
      "stateMutability": "view",
      "type": "function"
    },
    {
      "inputs": [
        {
          "internalType": "enum FantasyThings.CharacterClass",
          "name": "_charClass",
          "type": "uint8"
        }
      ],
      "name": "getStartingAttrtibutes",
      "outputs": [
        {
          "components": [
            {
              "internalType": "uint256",
              "name": "experience",
              "type": "uint256"
            },
            {
              "internalType": "uint16",
              "name": "health",
              "type": "uint16"
            },
            {
              "internalType": "uint8",
              "name": "strength",
              "type": "uint8"
            },
            {
              "internalType": "uint8",
              "name": "armor",
              "type": "uint8"
            },
            {
              "internalType": "uint8",
              "name": "physicalblock",
              "type": "uint8"
            },
            {
              "internalType": "uint8",
              "name": "agility",
              "type": "uint8"
            },
            {
              "internalType": "uint8",
              "name": "spellpower",
              "type": "uint8"
            },
            {
              "internalType": "uint8",
              "name": "spellresistance",
              "type": "uint8"
            },
            {
              "internalType": "uint8",
              "name": "healingpower",
              "type": "uint8"
            },
            {
              "internalType": "enum FantasyThings.CharacterClass",
              "name": "class",
              "type": "uint8"
            },
            {
              "components": [
                {
                  "internalType": "enum FantasyThings.AbilityType",
                  "name": "abilityType",
                  "type": "uint8"
                },
                {
                  "internalType": "uint8",
                  "name": "action",
                  "type": "uint8"
                },
                {
                  "internalType": "string",
                  "name": "name",
                  "type": "string"
                }
              ],
              "internalType": "struct FantasyThings.Ability[]",
              "name": "abilities",
              "type": "tuple[]"
            }
          ],
          "internalType": "struct FantasyThings.CharacterAttributes",
          "name": "",
          "type": "tuple"
        }
      ],
      "stateMutability": "view",
      "type": "function"
    },
    {
      "inputs": [
        {
          "internalType": "uint256",
          "name": "_tokenId",
          "type": "uint256"
        },
        {
          "internalType": "enum FantasyThings.CharacterClass",
          "name": "_charClass",
          "type": "uint8"
        }
      ],
      "name": "registerNewCharacter",
      "outputs": [],
      "stateMutability": "nonpayable",
      "type": "function"
    },
    {
      "inputs": [
        {
          "internalType": "uint256",
          "name": "",
          "type": "uint256"
        }
      ],
      "name": "s_CharacterAttributes",
      "outputs": [
        {
          "internalType": "uint256",
          "name": "experience",
          "type": "uint256"
        },
        {
          "internalType": "uint16",
          "name": "health",
          "type": "uint16"
        },
        {
          "internalType": "uint8",
          "name": "strength",
          "type": "uint8"
        },
        {
          "internalType": "uint8",
          "name": "armor",
          "type": "uint8"
        },
        {
          "internalType": "uint8",
          "name": "physicalblock",
          "type": "uint8"
        },
        {
          "internalType": "uint8",
          "name": "agility",
          "type": "uint8"
        },
        {
          "internalType": "uint8",
          "name": "spellpower",
          "type": "uint8"
        },
        {
          "internalType": "uint8",
          "name": "spellresistance",
          "type": "uint8"
        },
        {
          "internalType": "uint8",
          "name": "healingpower",
          "type": "uint8"
        },
        {
          "internalType": "enum FantasyThings.CharacterClass",
          "name": "class",
          "type": "uint8"
        }
      ],
      "stateMutability": "view",
      "type": "function"
    },
    {
      "inputs": [
        {
          "internalType": "enum FantasyThings.CharacterClass",
          "name": "",
          "type": "uint8"
        }
      ],
      "name": "s_StartingAttributes",
      "outputs": [
        {
          "internalType": "uint256",
          "name": "experience",
          "type": "uint256"
        },
        {
          "internalType": "uint16",
          "name": "health",
          "type": "uint16"
        },
        {
          "internalType": "uint8",
          "name": "strength",
          "type": "uint8"
        },
        {
          "internalType": "uint8",
          "name": "armor",
          "type": "uint8"
        },
        {
          "internalType": "uint8",
          "name": "physicalblock",
          "type": "uint8"
        },
        {
          "internalType": "uint8",
          "name": "agility",
          "type": "uint8"
        },
        {
          "internalType": "uint8",
          "name": "spellpower",
          "type": "uint8"
        },
        {
          "internalType": "uint8",
          "name": "spellresistance",
          "type": "uint8"
        },
        {
          "internalType": "uint8",
          "name": "healingpower",
          "type": "uint8"
        },
        {
          "internalType": "enum FantasyThings.CharacterClass",
          "name": "class",
          "type": "uint8"
        }
      ],
      "stateMutability": "view",
      "type": "function"
    },
    {
      "inputs": [],
      "name": "s_fantasyCharacters",
      "outputs": [
        {
          "internalType": "contract IERC721Metadata",
          "name": "",
          "type": "address"
        }
      ],
      "stateMutability": "view",
      "type": "function"
    },
    {
      "inputs": [],
      "name": "s_fantasyCharactersAddress",
      "outputs": [
        {
          "internalType": "address",
          "name": "",
          "type": "address"
        }
      ],
      "stateMutability": "view",
      "type": "function"
    }
  ],
  "bytecode": "0x60a06040523480156200001157600080fd5b50604051620023f5380380620023f5833981016040819052620000349162000c79565b600080546001600160a01b0319166001600160a01b038316178155606082901b6001600160601b03191660805260408051600180825281830190925290602082015b6200008062000bb1565b815260200190600190039081620000765790505060408051606081019091529091508060008152602001600160ff16815260200160405180604001604052806006815260200165537472696b6560d01b81525081525081600081518110620000f857634e487b7160e01b600052603260045260246000fd5b6020908102919091018101919091526040805160e08101825260148152601e92810192909252601990820152600f6060820152600060808201819052600560a083015260c08201819052620001519160649184620008fe565b604080516001808252818301909252600091816020015b6200017262000bb1565b815260200190600190039081620001685790505060408051606081019091529091508060008152602001600160ff16815260200160405180604001604052806006815260200165537472696b6560d01b81525081525081600081518110620001ea57634e487b7160e01b600052603260045260246000fd5b6020908102919091018101919091526040805160e081018252601e815260149281018390529081018290526060810191909152600060808201819052600560a083015260c08201526200024390606490600184620008fe565b604080516001808252818301909252600091816020015b6200026462000bb1565b8152602001906001900390816200025a5790505060408051606081019091529091508060048152602001600160ff16815260200160405180604001604052806008815260200167119a5c9958985b1b60c21b81525081525081600081518110620002de57634e487b7160e01b600052603260045260246000fd5b6020908102919091018101919091526040805160e0810182526005808252600a938201939093529081018290526060810191909152601e6080820152601460a0820152600060c08201526200033990605a90600284620008fe565b60408051600280825260608201909252600091816020015b6200035b62000bb1565b815260200190600190039081620003515790505060408051606081019091529091508060048152602001600160ff1681526020016040518060400160405280600e81526020016d131a59da1d1b9a5b99c8109bdb1d60921b81525081525081600081518110620003db57634e487b7160e01b600052603260045260246000fd5b602090810291909101015260408051606081019091528060068152602001600260ff1681526020016040518060400160405280600b81526020016a13985d1d5c99481219585b60aa1b815250815250816001815181106200044c57634e487b7160e01b600052603260045260246000fd5b6020908102919091018101919091526040805160e081018252600a808252600f938201849052918101829052606081018290526014608082015260a081019290925260c0820152620004a490606e90600384620008fe565b60408051600280825260608201909252600091816020015b620004c662000bb1565b815260200190600190039081620004bc5790505060408051606081019091529091508060048152602001600160ff16815260200160405180604001604052806005815260200164536d69746560d81b815250815250816000815181106200053d57634e487b7160e01b600052603260045260246000fd5b602090810291909101015260408051606081019091528060068152602001600260ff1681526020016040518060400160405280601081526020016f416e67656c277320426c657373696e6760801b81525081525081600181518110620005b357634e487b7160e01b600052603260045260246000fd5b6020908102919091018101919091526040805160e0810182526005808252600a93820184905291810182905260608101919091526080810191909152601e60a0820181905260c08201526200060e90607890600484620008fe565b604080516001808252818301909252600091816020015b6200062f62000bb1565b815260200190600190039081620006255790505060408051606081019091529091508060038152602001600160ff1681526020016040518060400160405280600481526020016329ba30b160e11b81525081525081600081518110620006a557634e487b7160e01b600052603260045260246000fd5b6020908102919091018101919091526040805160e081018252600f80825292810183905290810191909152601e6060820152600060808201819052600560a0830181905260c0830191909152620007009160649184620008fe565b604080516001808252818301909252600091816020015b6200072162000bb1565b815260200190600190039081620007175790505060408051606081019091529091508060038152602001600160ff168152602001604051806040016040528060088152602001674669726520426f7760c01b815250815250816000815181106200079b57634e487b7160e01b600052603260045260246000fd5b6020908102919091018101919091526040805160e081018252600a808252600f938201939093529081019190915260236060820152600060808201819052600560a083015260c0820152620007f690606490600684620008fe565b604080516001808252818301909252600091816020015b6200081762000bb1565b8152602001906001900390816200080d5790505060408051606081019091529091508060038152602001600160ff1681526020016040518060400160405280600b81526020016a14da18591bddc8109bdb1d60aa1b815250815250826000815181106200089457634e487b7160e01b600052603260045260246000fd5b6020908102919091018101919091526040805160e0810182526005808252600a938201939093529081018290526060810191909152601e6080820152601460a0820152600060c0820152620008ef90605a90600784620008fe565b50505050505050505062000d0e565b6000600260008460078111156200092557634e487b7160e01b600052602160045260246000fd5b60078111156200094557634e487b7160e01b600052602160045260246000fd5b81526020810191909152604001600090812060018101805461ffff191661ffff89161790559150849060200201516001808301805460ff909316620100000262ff000019909316929092179091558490602002015160018201805460ff90921663010000000263ff00000019909216919091179055836002602002015160018201805460ff9092166401000000000260ff60201b19909216919091179055836003602002015160018201805460ff909216650100000000000260ff60281b19909216919091179055836004602002015160018201805460ff90921666010000000000000260ff60301b19909216919091179055836005602002015160018201805460ff9092166701000000000000000260ff60381b19909216919091179055836006602002015160018201805460ff909216680100000000000000000260ff60401b199092169190911780825584919060ff60481b1916690100000000000000000083600781111562000ac857634e487b7160e01b600052602160045260246000fd5b021790555060005b825181101562000ba9578160020183828151811062000aff57634e487b7160e01b600052603260045260246000fd5b60209081029190910181015182546001818101855560009485529290932081516002909402018054919390929091839160ff199091169083600681111562000b5757634e487b7160e01b600052602160045260246000fd5b0217905550602082810151825460ff9091166101000261ff00199091161782556040830151805162000b90926001850192019062000bd3565b505050808062000ba09062000ce6565b91505062000ad0565b505050505050565b6040805160608101909152806000815260006020820152606060409091015290565b82805462000be19062000ca9565b90600052602060002090601f01602090048101928262000c05576000855562000c50565b82601f1062000c2057805160ff191683800117855562000c50565b8280016001018555821562000c50579182015b8281111562000c5057825182559160200191906001019062000c33565b5062000c5e92915062000c62565b5090565b5b8082111562000c5e576000815560010162000c63565b60006020828403121562000c8b578081fd5b81516001600160a01b038116811462000ca2578182fd5b9392505050565b60028104600182168062000cbe57607f821691505b6020821081141562000ce057634e487b7160e01b600052602260045260246000fd5b50919050565b600060001982141562000d0757634e487b7160e01b81526011600452602481fd5b5060010190565b60805160601c6116c162000d34600039600081816102680152610c3601526116c16000f3fe608060405234801561001057600080fd5b50600436106100be5760003560e01c80637b89fbe9116100765780638b1074141161005b5780638b107414146101925780638e31fb87146101b2578063e55ae4e8146101ba576100be565b80637b89fbe91461015d57806386481d4014610172576100be565b80635c49f00c116100a75780635c49f00c1461010a578063633f45d51461012a5780637b86e7c01461014a576100be565b80631434b587146100c357806341ee9ca7146100f5575b600080fd5b6100d66100d136600461127d565b6101cd565b6040516100ec9a999897969594939291906115d1565b60405180910390f35b6101086101033660046112b6565b610250565b005b61011d6101183660046112e1565b6107ca565b6040516100ec91906114d8565b61013d61013836600461127d565b610913565b6040516100ec91906114eb565b6100d661015836600461129e565b610bb1565b610165610c34565b6040516100ec91906113fa565b61018561018036600461129e565b610c58565b6040516100ec91906115c8565b6101a56101a036600461129e565b610c5e565b6040516100ec919061141b565b610165610dc0565b61013d6101c836600461129e565b610ddc565b6002602052600090815260409020805460019091015461ffff81169060ff62010000820481169163010000008104821691640100000000820481169165010000000000810482169166010000000000008204811691670100000000000000810482169168010000000000000000820481169169010000000000000000009004168a565b3373ffffffffffffffffffffffffffffffffffffffff7f000000000000000000000000000000000000000000000000000000000000000016146102c8576040517f08c379a00000000000000000000000000000000000000000000000000000000081526004016102bf9061147b565b60405180910390fd5b6000828152600160205260408120906002908360078111156102fa57634e487b7160e01b600052602160045260246000fd5b600781111561031957634e487b7160e01b600052602160045260246000fd5b81526020019081526020016000206002018160020190805461033c929190611024565b506002600083600781111561036157634e487b7160e01b600052602160045260246000fd5b600781111561038057634e487b7160e01b600052602160045260246000fd5b815260208101919091526040016000908120600190810154908301805461ffff191661ffff9092169190911790556002908360078111156103d157634e487b7160e01b600052602160045260246000fd5b60078111156103f057634e487b7160e01b600052602160045260246000fd5b815260200190815260200160002060010160029054906101000a900460ff168160010160026101000a81548160ff021916908360ff1602179055506002600083600781111561044f57634e487b7160e01b600052602160045260246000fd5b600781111561046e57634e487b7160e01b600052602160045260246000fd5b815260200190815260200160002060010160039054906101000a900460ff168160010160036101000a81548160ff021916908360ff160217905550600260008360078111156104cd57634e487b7160e01b600052602160045260246000fd5b60078111156104ec57634e487b7160e01b600052602160045260246000fd5b815260200190815260200160002060010160049054906101000a900460ff168160010160046101000a81548160ff021916908360ff1602179055506002600083600781111561054b57634e487b7160e01b600052602160045260246000fd5b600781111561056a57634e487b7160e01b600052602160045260246000fd5b815260200190815260200160002060010160059054906101000a900460ff168160010160056101000a81548160ff021916908360ff160217905550600260008360078111156105c957634e487b7160e01b600052602160045260246000fd5b60078111156105e857634e487b7160e01b600052602160045260246000fd5b815260200190815260200160002060010160069054906101000a900460ff168160010160066101000a81548160ff021916908360ff1602179055506002600083600781111561064757634e487b7160e01b600052602160045260246000fd5b600781111561066657634e487b7160e01b600052602160045260246000fd5b815260200190815260200160002060010160079054906101000a900460ff168160010160076101000a81548160ff021916908360ff160217905550600260008360078111156106c557634e487b7160e01b600052602160045260246000fd5b60078111156106e457634e487b7160e01b600052602160045260246000fd5b815260200190815260200160002060010160089054906101000a900460ff168160010160086101000a81548160ff021916908360ff1602179055506002600083600781111561074357634e487b7160e01b600052602160045260246000fd5b600781111561076257634e487b7160e01b600052602160045260246000fd5b81526020810191909152604001600020600190810154908201805460ff690100000000000000000093849004169269ff00000000000000000019909116908360078111156107c057634e487b7160e01b600052602160045260246000fd5b0217905550505050565b6107d26110ec565b600083815260016020526040902060020180548390811061080357634e487b7160e01b600052603260045260246000fd5b6000918252602090912060408051606081019091526002909202018054829060ff16600681111561084457634e487b7160e01b600052602160045260246000fd5b600681111561086357634e487b7160e01b600052602160045260246000fd5b81528154610100900460ff1660208201526001820180546040909201916108899061163a565b80601f01602080910402602001604051908101604052809291908181526020018280546108b59061163a565b80156109025780601f106108d757610100808354040283529160200191610902565b820191906000526020600020905b8154815290600101906020018083116108e557829003601f168201915b505050505081525050905092915050565b61091b61110e565b6002600083600781111561093f57634e487b7160e01b600052602160045260246000fd5b600781111561095e57634e487b7160e01b600052602160045260246000fd5b8152602080820192909252604090810160002081516101608101835281548152600182015461ffff81169482019490945260ff6201000085048116938201939093526301000000840483166060820152640100000000840483166080820152650100000000008404831660a082015266010000000000008404831660c08201526701000000000000008404831660e0820152680100000000000000008404831661010082015292909161012084019169010000000000000000009004166007811115610a3a57634e487b7160e01b600052602160045260246000fd5b6007811115610a5957634e487b7160e01b600052602160045260246000fd5b815260200160028201805480602002602001604051908101604052809291908181526020016000905b82821015610ba1576000848152602090206040805160608101909152600284029091018054829060ff166006811115610acb57634e487b7160e01b600052602160045260246000fd5b6006811115610aea57634e487b7160e01b600052602160045260246000fd5b81528154610100900460ff166020820152600182018054604090920191610b109061163a565b80601f0160208091040260200160405190810160405280929190818152602001828054610b3c9061163a565b8015610b895780601f10610b5e57610100808354040283529160200191610b89565b820191906000526020600020905b815481529060010190602001808311610b6c57829003601f168201915b50505050508152505081526020019060010190610a82565b505050508152505090505b919050565b6001602081905260009182526040909120805491015461ffff81169060ff62010000820481169163010000008104821691640100000000820481169165010000000000810482169166010000000000008204811691670100000000000000810482169168010000000000000000820481169169010000000000000000009004168a565b7f000000000000000000000000000000000000000000000000000000000000000081565b50600090565b606060016000838152602001908152602001600020600201805480602002602001604051908101604052809291908181526020016000905b82821015610db5576000848152602090206040805160608101909152600284029091018054829060ff166006811115610cdf57634e487b7160e01b600052602160045260246000fd5b6006811115610cfe57634e487b7160e01b600052602160045260246000fd5b81528154610100900460ff166020820152600182018054604090920191610d249061163a565b80601f0160208091040260200160405190810160405280929190818152602001828054610d509061163a565b8015610d9d5780601f10610d7257610100808354040283529160200191610d9d565b820191906000526020600020905b815481529060010190602001808311610d8057829003601f168201915b50505050508152505081526020019060010190610c96565b505050509050919050565b60005473ffffffffffffffffffffffffffffffffffffffff1681565b610de461110e565b600082815260016020818152604092839020835161016081018552815481529281015461ffff81169284019290925260ff6201000083048116948401949094526301000000820484166060840152640100000000820484166080840152650100000000008204841660a084015266010000000000008204841660c08401526701000000000000008204841660e08401526801000000000000000082048416610100840152919261012084019169010000000000000000009004166007811115610ebd57634e487b7160e01b600052602160045260246000fd5b6007811115610edc57634e487b7160e01b600052602160045260246000fd5b815260200160028201805480602002602001604051908101604052809291908181526020016000905b82821015610ba1576000848152602090206040805160608101909152600284029091018054829060ff166006811115610f4e57634e487b7160e01b600052602160045260246000fd5b6006811115610f6d57634e487b7160e01b600052602160045260246000fd5b81528154610100900460ff166020820152600182018054604090920191610f939061163a565b80601f0160208091040260200160405190810160405280929190818152602001828054610fbf9061163a565b801561100c5780601f10610fe15761010080835404028352916020019161100c565b820191906000526020600020905b815481529060010190602001808311610fef57829003601f168201915b50505050508152505081526020019060010190610f05565b8280548282559060005260206000209060020281019282156110dc5760005260206000209160020282015b828111156110dc57825482548491849160ff90911690829060ff1916600183600681111561108d57634e487b7160e01b600052602160045260246000fd5b02179055508154815461ff0019166101009182900460ff1690910217815560018083018054918301916110bf9061163a565b6110ca92919061116a565b5050509160020191906002019061104f565b506110e89291506111f1565b5090565b6040805160608101909152806000815260006020820152606060409091015290565b6040805161016081018252600080825260208201819052918101829052606081018290526080810182905260a0810182905260c0810182905260e081018290526101008101829052906101208201908152602001606081525090565b8280546111769061163a565b90600052602060002090601f01602090048101928261119857600085556111e5565b82601f106111a957805485556111e5565b828001600101855582156111e557600052602060002091601f016020900482015b828111156111e55782548255916001019190600101906111ca565b506110e892915061121a565b808211156110e857805461ffff191681556000611211600183018261122f565b506002016111f1565b5b808211156110e8576000815560010161121b565b50805461123b9061163a565b6000825580601f1061124d575061126b565b601f01602090049060005260206000209081019061126b919061121a565b50565b803560088110610bac57600080fd5b60006020828403121561128e578081fd5b6112978261126e565b9392505050565b6000602082840312156112af578081fd5b5035919050565b600080604083850312156112c8578081fd5b823591506112d86020840161126e565b90509250929050565b600080604083850312156112f3578182fd5b50508035926020909101359150565b60008282518085526020808601955080818302840101818601855b8481101561134b57601f1986840301895261133983835161136c565b9884019892509083019060010161131d565b5090979650505050505050565b6008811061136857611368611675565b9052565b600081516007811061138057611380611675565b80845250602060ff8184015116818501526040830151606060408601528051806060870152835b818110156113c3578281018401518782016080015283016113a7565b818111156113d45784608083890101525b50601f01601f191694909401608001949350505050565b61ffff169052565b60ff169052565b73ffffffffffffffffffffffffffffffffffffffff91909116815260200190565b6000602080830181845280855180835260408601915060408482028701019250838701855b8281101561146e57603f1988860301845261145c85835161136c565b94509285019290850190600101611440565b5092979650505050505050565b6020808252602e908201527f4f6e6c7920746865204e465420636f6e74726163742063616e2072656769737460408201527f6572206120636861726163746572000000000000000000000000000000000000606082015260800190565b600060208252611297602083018461136c565b60006020825282516020830152602083015161150a60408401826113eb565b50604083015161151d60608401826113f3565b50606083015161153060808401826113f3565b50608083015161154360a08401826113f3565b5060a083015161155660c08401826113f3565b5060c083015161156960e08401826113f3565b5060e083015161010061157e818501836113f3565b8401519050610120611592848201836113f3565b84015190506101406115a684820183611358565b8401516101608481015290506115c0610180840182611302565b949350505050565b90815260200190565b8a815261ffff8a16602082015260ff89811660408301528881166060830152878116608083015286811660a083015285811660c083015284811660e08301528316610100820152610140810161162b610120830184611358565b9b9a5050505050505050505050565b60028104600182168061164e57607f821691505b6020821081141561166f57634e487b7160e01b600052602260045260246000fd5b50919050565b634e487b7160e01b600052602160045260246000fdfea264697066735822122003d6c7d47f435a8dfbd9fc6ebc9c030a6ddc059e0beacf176a03323d0df1af5264736f6c63430008000033",
  "linkReferences": {},
  "deployedLinkReferences": {}
}